:020000040800F2
:10000000800800209D010008491F0008751E000897
:10001000451F0008750D00081522000800000000AB
:10002000000000000000000000000000511F000858
:10003000790D0008000000004D1F0008551F000842
:10004000B7010008B7010008B7010008B7010008B0
:10005000B7010008B7010008B7010008B7010008A0
:10006000B7010008B7010008B7010008B701000890
:10007000B7010008B7010008B7010008B701000880
:10008000B7010008B7010008B7010008B701000870
:10009000B7010008B7010008B7010008B701000860
:1000A000B7010008B7010008B7010008B701000850
:1000B000B7010008B7010008B7010008B701000840
:1000C000B7010008B7010008B7010008B701000830
:1000D000B7010008B7010008B7010008B701000820
:1000E000B7010008B7010008B7010008B701000810
:1000F000B7010008B7010008B7010008B701000800
:10010000B7010008B7010008B7010008B7010008EF
:1001100015200008B7010008B7010008B701000862
:10012000B7010008B7010008B7010008B7010008CF
:10013000B7010008B7010008B7010008B7010008BF
:10014000B7010008B7010008B7010008B7010008AF
:10015000B7010008B7010008B7010008B70100089F
:10016000B7010008B7010008B7010008B70100088F
:10017000B7010008B7010008B7010008000000003F
:10018000B7010008B7010008DFF80CD000F090FDBF
:1001900000480047F92400088008002006488047EE
:1001A00006480047FEE7FEE7FEE7FEE7FEE7FEE75C
:1001B000FEE7FEE7FEE7FEE70120000889010008F0
:1001C0002DE9F05F0546002092469B46884606468C
:1001D000814640241BE0284641464746224600F01F
:1001E000ACFB53465A46C01A914110D311461846EB
:1001F000224600F093FB2D1A67EB01084F4622467A
:100200000120002100F08AFB17EB00094E41201E5F
:10021000A4F10104DFDC484631462A464346BDE8E6
:10022000F09F40EA01039B0703D009E008C9121FB1
:1002300008C0042AFAD203E011F8013B00F8013BA0
:10024000521EF9D27047D2B201E000F8012B491ECC
:10025000FBD270470022F6E710B513460A46044663
:100260001946FFF7F0FF204610BD421C10F8011B95
:100270000029FBD1801A704710B5002200E0521C03
:10028000835C8C5CA34201D1002BF8D1D8B2E1B2DF
:10029000401A10BD30B505460020034600E05B1C47
:1002A000934205D2EC5CC85C201A01D1002CF6D137
:1002B00030BD00002DE9FF4F087883B09946FF2834
:1002C00005D0491C2D2804D00024002008E000207F
:1002D0000BE00124F9E700EB800003EB4000491C30
:1002E0000B78FF2BF7D104B140420023029314781E
:1002F00019461D462D2C01D02B2C04D1521C2D2C1F
:1003000013D000240294AA461478FF2C0FD00A259B
:10031000A3FB057801FB05814FF0000C03FB0C11DA
:10032000521CE3194AEB0101EEE70124EAE781449C
:1003300053EA010002D019F5C87F06DA03980021BC
:10034000C0E9001107B0BDE8F08F0025AE4E2F4682
:10035000DFF8B882184600F053FCCDE90001B9F18E
:10036000000002DAC9F1000400E004460023A74AB5
:100370001AEB030B42EB045A12E0E00707D02A46BF
:1003800033463846414600F0ECF9074688462A468F
:1003900033461046194600F0E4F905460E4664104F
:1003A000002CEAD1DDE90001B9F1000F5A465346AD
:1003B00006DA00F0B6FB3A46434600F0B2FB05E031
:1003C00000F0CFF93A46434600F0CBF9029A0AB161
:1003D00081F00041039AC2E90001B3E72DE9FF4F24
:1003E0001F468DB0D7E901464FF0FF382E20454615
:1003F0004FF000090B90B9696D1C0E988847396A57
:10040000824688470028F6D1BAF1FF3F0AD024F48B
:10041000D064002E11DDBAF12B0F08D0BAF12D0FE8
:100420000BD102E0404611B08DE744F48064B96915
:100430006D1C0E9888478246761E6946600501D578
:100440002D2000E02B208DF8000001F1010B0DF1B3
:10045000200809E0B9696D1C0E98884782460F98FC
:1004600044F40074761E0560002E02DDBAF1300FF0
:10047000F0D00B998A453ED144F0800406E00F99F4
:10048000681CA9F1010944F400740860B9696D1C85
:10049000761E0E98884782463028F0D02BE00B99C4
:1004A0008A4505D1200603D444F08004761E18E066
:1004B000504603F03BF808B30DF11302761EAAF183
:1004C000300044F40074934506D20BF8010B20066B
:1004D00007D5A9F1010003E0200602D409F10100CB
:1004E0008146A00502D50F99681C0860B9696D1C8A
:1004F0000E9888478246002ED1DC53E0002E51DD55
:10050000BAF1650F02D0BAF1450F4BD1A00549D51C
:10051000B9696D1C24F44074761E0E988847824693
:10052000002E0CDD2B2804D0BAF12D0F07D144F496
:100530008074B9696D1C0E9888478246761EE00566
:1005400001D52D2100E02B2108F8011BCDF82C80CE
:1005500021E00DF12901761E44F4007488450CD287
:10056000AAF1300010F0FF0088F8000002D10B99CA
:10057000884509D908F1010806E0E00501D52448BD
:1005800001E042F20F708146B9696D1C0E988847F0
:1005900082460F980560002E04DD504602F0C6FF2B
:1005A0000028D6D1F9690E988847FF208BF8000003
:1005B00088F800000020069007904B466A4608A97C
:1005C00006A8FFF777FEA00502D46FF001002AE726
:1005D00014F0240F0AD0E00714D1DDE906123868C0
:1005E000031D3B600068C0E900120BE0DDE9060175
:1005F00000F042FB0146E00704D13868021D3A6072
:100600000068016028460EE7000014400000F03F3B
:10061000F1D8FFFF2DE9FE4F804681EA0300C00FAD
:100620000C46009021F0004123F00045B8EB020099
:10063000A94105D24046214690461C460B4602463B
:1006400023F00040104347D0270DC7F30A00C3F33F
:100650000A510290401A019040286BDAC3F313004C
:1006600040F4801B0098924620B10023D2EB030A8D
:1006700063EB0B0B01985946C0F14002504600F065
:100680004DF906460D4650465946019A00F065F967
:1006900010EB08006141002487EA115284EAE773F5
:1006A0001A4340D0009A62B3019A012A4FEA0752D6
:1006B00015DC001B61EB02014FF0004202EA075219
:1006C000CDE90042001C41F5801132462B4600F076
:1006D000DAF903B0BDE8F08F40462146F9E7001B88
:1006E00061EB0201001C41F5801300185B412018EA
:1006F000A2F5001747EB030140EAD570B6196D412A
:1007000011E06D084FEA360645EAC0754FEA075218
:10071000001B61EB0201001C41F5801149084FEA02
:1007200030000019514132462B4603B0BDE8F04F6E
:1007300000F09AB90098012240000023D0EB020299
:1007400063EBE073009821464FEAE074B8EB0000D9
:1007500061EB0401E9E783F000435BE781F00041CE
:1007600058E72DE9FE4F81EA030404F0004421F02C
:10077000004100944FF0000B23F0004350EA0104C5
:100780005ED052EA03045BD0C3F30A54C1F30A55A6
:100790002C44A4F2F3340194A0FB0254C1F31301DE
:1007A00041F48011C3F3130343F4801301FB0244AB
:1007B00000FB034E840A970A44EA815447EA8357B0
:1007C000A4FB076802958D0A05FB07854FEA932C69
:1007D00004FB0C542705029D4FEA065847EA1637DA
:1007E000B5EB08056EEB070C870E920E47EA8117F2
:1007F00042EA8312A7FB0201B6EB0B0164EB000493
:100800002B0D43EA0C335E1844EB1C50DA4651467C
:10081000E7FB0201C5F313044FEA0B3343EA145319
:100820004FEA0432019C43EA0603A4F10C0402944B
:10083000009CCDE900B400F026F903B0BDE8F08FCC
:1008400000200146F9E730B5041E71F1000404DB15
:100850004FF00044404264EB0101141E73F10004A8
:1008600005DB1C464FF00043524263EB0403801A41
:10087000994101D3012030BD002030BD30B5041EA8
:1008800071F1000404DB4FF00044404264EB0101CD
:10089000141E73F1000405DB1C464FF00043524266
:1008A00063EB0403101A8B4101D3012030BD0020FB
:1008B00030BD70B5C1F30A5201F000450024C1F308
:1008C000130140F2FF3341F480119A4201DA002013
:1008D00070BD40F233439A42A2F2334203DC5242EB
:1008E00000F02BF800E090402C43F1D0404270BD66
:1008F00030B50B46014600202022012409E021FAF0
:1009000002F59D4205D303FA02F5491B04FA02F5EC
:100910002844151EA2F10102F1DC30BD202A04DBBF
:10092000203A00FA02F1002070479140C2F1200302
:1009300020FA03F3194390407047202A04DB203A41
:1009400021FA02F00021704721FA02F3D040C2F1EF
:1009500020029140084319467047202A06DBCB1736
:10096000203A41FA02F043EAE07306E041FA02F36A
:10097000D040C2F1200291400843194670474268B6
:1009800042B1016811F8013B23B1521EC0E90012C7
:10099000184670470121C160881E704742685AB1ED
:1009A000C368016843B983688B4205D0491E521C55
:1009B000C0E90012002070474FF0FF307047000080
:1009C0000FB40B0010B58AB00FA900910E994FF02B
:1009D0000004234ACC60214CCDE9064200D0042318
:1009E0006FF00042CDE901321E4A089202466B4682
:1009F0000020FFF7F3FC0AB010BC5DF814FBF0B563
:100A000085B007464FF0FF300091CDE901011E4649
:100A1000002015460C4604903B466A46314604A821
:100A2000FFF7CEFF04990346601825B109B10246CD
:100A300000E022462A6000290ED0002B02DD00993A
:100A4000814209D00094001BCDE901043B466A466F
:100A5000314604A8FFF7B4FF05B0F0BD7F090008D8
:100A60009D090008D50C000810B5141E73F1000490
:100A700008DA401C41F1000192185B411A4301D190
:100A800020F0010010BD2DE9F04D92469B4611B1BA
:100A9000B1FA81F202E0B0FA80F220329046FFF71C
:100AA0003DFF04460F4640EA0A0041EA0B01534667
:100AB0005A46084313D0114653EA010019D0C8F131
:100AC00040025046FFF739FF05460E46504659464C
:100AD0004246FFF723FF084305D0012004E02046EB
:100AE0003946BDE8F08D0020054346EAE0762C4308
:100AF00037430A986305E40AA0EB08000022FD0AC8
:100B000044EA47540A3002D500200146E9E70105CE
:100B100010196941DDE9084500196941BDE8F04D4A
:100B2000A2E72DE9F04D81EA030404F0004B21F027
:100B3000004514464FF0000A23F0004150EA050238
:100B400020D054EA01021DD0C5F30A570246C5F36E
:100B50001303C1F31300C1F30A5640F4801543F4A4
:100B60008013A7EB0608101BD64608F2FD3873EB7E
:100B7000050002D308F1010801E092185B41B8F1C9
:100B8000000F03DA00200146BDE8F08D00204FF48D
:100B90008011064684460EE0171B73EB050705D34C
:100BA000121B63EB050306434CEA010C49084FEAAC
:100BB000300092185B4150EA0107EDD152EA030080
:100BC00012D082EA040083EA0501084305D0101B15
:100BD000AB4106D20122002306E000224FF0004381
:100BE00002E06FF0010253101AEB06004CEB0851C3
:100BF00010EB0A0041EB0B01BDE8F04DFFF734BFED
:100C00000EB540F2334202920022CDE90022134693
:100C1000FFF739FF03B000BDC1F30A52C1F313015E
:100C200040F2FF3341F480119A4202DA002001467B
:100C3000704740F233439A42A2F2334202DC5242FE
:100C4000FFF77BBEFFF76ABE30B5041E71F10004EA
:100C500004DB4FF00044404264EB0101141E73F1C9
:100C6000000405DB1C464FF00043524263EB0403D3
:100C7000994208BF904230BD01F0004330B421F0EA
:100C8000004150EA010206D00A0DA2F56072C1F3DC
:100C90001301002A02DC30BC00207047440F44EAF4
:100CA000C104C100E01830BC00EBC25000F017B81E
:100CB000064C074D06E0E06840F0010394E80700A9
:100CC00098471034AC42F6D3FFF762FA003E0008B2
:100CD000203E0008C0B24FF4F05100F037B80029B0
:100CE000A8BF7047401C490008BF20F001007047B2
:100CF00010B4B0FA80FC00FA0CF050EA010404BF12
:100D000010BC704749B1CCF1200421FA04F411FA67
:100D10000CF118BF012121430843A3EB0C01CB1DAB
:100D20004FEA00614FEA102042BF002010BC70471C
:100D300000EBC35010440029A4BF10BC7047401CF6
:100D4000490008BF20F0010010BC70477F2801D97E
:100D5000002208E0064A02EB5002C007127800D1D8
:100D6000120902F00F020120904008407047000075
:100D70005C3D0008FEE700007047000072B600BF4F
:100D8000FEE7000070B5866D044600F03BF994F86C
:100D9000351002292ED105462068216C026822F008
:100DA00016020260426922F08002426109B9A16C18
:100DB00019B1016821F008010160016821F0010109
:100DC00001600068C00708D000F01CF9401B05282E
:100DD00018D820680068C007F6D1E06D3F2101FAFD
:100DE00000F0B060012084F835000020002184F874
:100DF000341070BD802060650120002184F834101B
:100E000070BD00BF20206065032084F835000021FC
:100E100084F8341070BD000090F83510022909D113
:100E2000052180F835100068016821F0010101609A
:100E30000020704780214165012070472DE9F04F67
:100E400082B000F13E4241F6004502F1FF77C4F264
:100E5000020508224FEAB726A84208BF0722072E3C
:100E600038BF4FEAB7224FF0010A002400274FF0A5
:100E70000008009208E000BF023708F10108202FA7
:100E800004F1040400F0B4800E680AFA08F916EAC6
:100E9000090FF1D0D1F804A00AF0030BABF1010661
:100EA000012E17D80322866802FA07FECA6826EACE
:100EB0000E06BA40324382604268CAF3001522EA45
:100EC000090205FA08F54FEA480C6FEA0E062A43B4
:100ED00042600BE00322BA40D643BBF1030FBC468D
:100EE00004D1BC464FF0030B22E000BFC2688D68FE
:100EF000324005FA0CF52A43BBF1020FC26017D14C
:100F00006FF0030202EA5802024404F01C030F25AA
:100F1000D2F820E005FA03FA0D692EEA0A0E05FA66
:100F200003F343EA0E031362D1F804A00AF0030BA3
:100F300002680BFA0CF332401A431AF4403F4FF0A8
:100F4000010A026098D0002243F644030192C4F2E1
:100F500002031A6843F6004E42F480421A601A688F
:100F6000C4F2010E02F480420192019A28F00302B9
:100F70004FF6084C7244CFF6FF7C52F80C3004F068
:100F80000C060F25B540AB43009D05FA06F633432A
:100F900042F80C30DEF808204B6842EA090643F6B6
:100FA0000C4CDD0258BF22EA0906CEF80860C4F2F4
:100FB000010CDCF800209D0242EA090658BF22EA33
:100FC0000906CCF80060DEF804209D0342EA090619
:100FD00058BF22EA0906CEF80460DEF80020DB03E1
:100FE00042EA090658BF22EA0906CEF8006043E744
:100FF00002B0BDE8F08F0000002A08BF090481613B
:101000007047000040F27C20C2F200000068704788
:1010100040F20C0040F27C21C2F20000C2F200015A
:1010200000780A68104408607047000080B543F6F5
:101030000040C4F20200016841F4007101600168DF
:1010400041F480610160016841F480710160032016
:1010500000F084F80F2000F005F800F027F80020D9
:1010600080BD000070B540F20C06C2F2000640F2EE
:1010700014013278C2F200014FF47A730968B3FBAD
:10108000F2F20446B1FBF2F1084600F041FB0F2CEE
:101090004FF0010508D838B94FF0FF302146002243
:1010A000002500F02FF87460284670BD82B0002043
:1010B00043F640010190C4F202014A6842F48042C2
:1010C0004A604A6802F480420192019A00900868DE
:1010D00040F080500860086800F080500090009850
:1010E00002B07047002848BF704700F01F0101227E
:1010F00002FA01F14EF200124009CEF2000242F86B
:101100002010704710B54EF60C5CCEF2000CDCF8E7
:101110000030C3F3022E8EF00704042C28BF0424F1
:10112000BEF103034FF0FF3E0EFA04F438BF002374
:10113000A14399400EFA03F39A4300F00F03043BD6
:101140001143634409010C3300F16042B0F1FF3FE9
:10115000C8BF02F56443197010BD00004EF60C5173
:10116000CEF200010A684FF6FF031A4060F30A222C
:1011700042F0806040F0FD70086070472DE9F0415A
:10118000002800F08B8043F60808C4F202080446E9
:10119000D8F8F8030D4600F00700884207D288F817
:1011A000F853D8F8F80300F00700A84276D1206879
:1011B000810717D5410705D5D8F8001041F4E05153
:1011C000C8F80010010705D5D8F8001041F46041B7
:1011D000C8F80010D8F80010A26821F0F0011143FF
:1011E000C8F80010C0073FD1D8F8F80300F0070096
:1011F000A84207D988F8F853D8F8F80300F0070098
:10120000A8424BD12068410707D5D8F80010E26802
:1012100021F4E0511143C8F80010000708D5D8F8B0
:101220000000216920F4604040EAC100C8F80000D5
:1012300000F07CF8D8F8001043F69C52C1F303117B
:10124000C0F60002515C40F2140220FA01F140F2B3
:101250001000C2F200000068C2F200021160FFF745
:1012600001FF0020BDE8F0816068811E022907D2DD
:1012700058F8081C89015CBF0120BDE8F08111E02D
:10128000012807D158F8081C89035CBF0120BDE87C
:10129000F08107E058F8081C890703D40120BDE855
:1012A000F08100BFD8F8001021F003010843C8F80E
:1012B0000000FFF7A7FE064641F28837D8F8000085
:1012C000616800F00C00B0EB810F8DD0FFF79AFE43
:1012D000801BB842F2D90320BDE8F08140F214002F
:1012E00043F60801C2F20000C4F202010068096876
:1012F00043F6AC52C1F38221C0F60002515CC840F3
:101300007047000040F2140043F60801C2F20000EA
:10131000C4F202010068096843F6AC52C1F34231DD
:10132000C0F60002515CC8407047000010B543F69B
:101330000404C4F20204606800F00C0008280BD01A
:10134000042819BF42F20040C0F2F40047F6400002
:10135000C0F27D1010BD00BF2068216823684902DB
:1013600047F64001C0F27D1100F03F02C3F3881040
:101370005CBF42F20041C0F2F401A1FB0001002376
:10138000FEF71EFF21680222C1F3014102EB410179
:10139000B0FBF1F010BD00002DE9F04182B0002853
:1013A0006AD00446007843F60006C007C4F202067D
:1013B0000BD0B06800F00C00042840F0A180306829
:1013C000800302D56068002856D0207880071AD59F
:1013D000B06810F00C0F09D0B06800F00C000828BD
:1013E00040F0A8807068400200F1A4803068800757
:1013F00002D5E06801283FD13068216920F0F8006B
:1014000040EAC10030602078000739D420784007D6
:101410004ED4A5695DB3B06800F00C00082840F018
:10142000BD80012D28D07068E16900F480028A42F5
:1014300022D1216A00F03F028A421DD147F6C071D5
:10144000626A0140B1EB821F16D1A26A0023CFF677
:10145000FF7303EBC23200F440316FF30F0291428D
:101460000AD1E16A00F07060B0EB016F04D1002096
:1014700002B0BDE8F08100BF012002B0BDE8F081FC
:101480006069002840F20000C4F2472076D00121B4
:10149000C0F8801EFFF7B6FD054600BF706F8007DD
:1014A000B4D4FFF7AFFD401B0228F7D9DDE000BF41
:1014B000306C10F080580AD100200190306C40F060
:1014C00080503064306C00F080500190019847F2F9
:1014D0000007C4F200073868C00541D4386840F4FA
:1014E00080703860FFF78EFD054600BF3868C00584
:1014F00036D4FFF787FD401B0228F7D9B5E000BFBF
:10150000B06800F00C00082803D1706840023FF575
:1015100056AF6068B0F5803F07D0B0F5A02F40F01F
:101520008D80306840F480203060306840F4803036
:1015300030608DE0E068002852D00020C4F24720DF
:1015400001210160FFF75EFD054600BF306880079E
:101550003FF552AFFFF756FD401B0228F6D984E055
:10156000A068012805D005284ED1306F40F0040056
:101570003067306F40F0010030674FE00021C0F865
:10158000801EFFF73FFD0546706F80077FF53EAF79
:10159000FFF738FD401B0228F6D966E00027C4F2A9
:1015A000472700203866FFF72DFD022D05460BD199
:1015B000306880015ED5FFF725FD401B02284FF003
:1015C0000300F5D954E700BF306880017FF54FAFC5
:1015D000FFF718FD401B02284FF00300F4D947E73E
:1015E0000020C4F2472000210160FFF70BFD0546F3
:1015F000306880077FF507AFFFF704FD401B022826
:101600004FF00300F4D933E7316F002821F00101D6
:101610003167316F21F0040131674DD0FFF7F2FCE3
:10162000054641F2883700BF306F800756D4FFF778
:10163000E9FC401BB842F7D917E000BF3168002829
:1016400021F480313160316821F4802131604FD044
:10165000FFF7D8FC054600BF306880033FF5B5AE04
:10166000FFF7D0FC401B6428F6D9032002B0BDE888
:10167000F08100BF04F11C052FCD08430021CFF6F7
:10168000FF7140EA821001EBC3316FF30F0140EAB2
:1016900005600843706001203866FFF7B3FC04461C
:1016A000306880013FF5E3AEFFF7ACFC001B022879
:1016B0004FF00300F4D9DBE6FFF7A4FC054641F246
:1016C000883700BF306F800708D5FFF79BFC401BB1
:1016D000B8424FF00300F5D9CAE600BFB8F1000FD9
:1016E0007FF497AE306C20F08050306491E600BFFC
:1016F000FFF788FC054600BF306880037FF565AEC4
:10170000FFF780FC401B64284FF00300F4D9AFE6DC
:10171000411E0020B0EB116F1CBF012070474EF23C
:101720001002CEF2000251604EF62351CEF20001BB
:10173000F0230B7007219060116070477047000024
:1017400070470000B0B582B0056804462968EA68B1
:10175000686901F02F03202B02F0200306D12BB182
:10176000204602B0BDE8B04000F060BC5FEA017CFA
:101770001EBF00F0010E02F4907010EB0E002FD18E
:10178000236B02EA0100C10618D5012B16D10020F7
:101790000190286801906868019001986869400686
:1017A00028D4A08DE18DE28D002A1CBF411A5FEA8A
:1017B000014040F0D78102B0B0BD00BF010600F18A
:1017C000D3804006F7D5E868202120F04000E8608B
:1017D000204684F8411002B0BDE8B04000F048BB9C
:1017E000C80718BF12F4807040F0D280480700F19B
:1017F000D580DAE0E06B01684A6893B2002BDAD05A
:10180000A18D8B42D7D2E285C069B0F5807F00F010
:10181000A08055E8030F216820F4807041E803029E
:10182000F2B1206850E8030F216820F4807041E88D
:101830000302AAB1206850E8030F216820F48070E9
:1018400041E8030262B1206850E8030F216820F4E8
:10185000807041E803021AB1206850E8030FDAE70C
:10186000206850E8050F216820F0010041E80502DA
:10187000BAB3206850E8050F216820F0010041E864
:10188000050272B3206850E8050F216820F00100BE
:1018900041E805022AB3206850E8050F216820F0CE
:1018A000010041E80502002ADAD11AE0206850E878
:1018B000050F216820F0400041E80502DAB12068F8
:1018C00050E8050F216820F0400041E8050292B180
:1018D000206850E8050F216820F0400041E805022B
:1018E0004AB1206850E8050F216820F0400041E827
:1018F0000502002ADAD1202084F84200002020636B
:10190000206850E8030F216820F0100041E803022E
:10191000DAB1206850E8030F216820F0100041E898
:10192000030292B1206850E8030F216820F01000F4
:1019300041E803024AB1206850E8030F216820F013
:10194000100041E80302002ADAD1E06BFFF71AFA2F
:10195000A18D02206063E08D081A81B2204602B09A
:10196000BDE8B040FFF7EABE94F8410021287FF4BB
:1019700022AFA068B0F5805F03D12069002800F095
:101980008981206A411C21620078686089E100BF7A
:10199000606C40F001006064480706D5BEF1000F9E
:1019A00003D0606C40F002006064880706D5BEF189
:1019B000000F03D0606C40F004006064BCF1000FC5
:1019C00006D55EEA030003D0606C40F00800606456
:1019D000606C00283FF4EFAE02EA0100800603D5F8
:1019E000204600F023FB25686869616C00F0400028
:1019F00001F00801401800F0AD8055E8030F00BF6A
:101A0000216820F4907041E80302D2B3206850E8C6
:101A1000030F216820F4907041E803028AB3206824
:101A200050E8030F216820F4907041E8030242B3AC
:101A3000206850E8030F216820F4907041E8030209
:101A4000FAB1206850E8030FDAE700BF206850E8D9
:101A5000050F216820F0010041E80502DAB1206895
:101A600050E8050F216820F0010041E8050292B11D
:101A7000206850E8050F216820F0010041E80502C8
:101A80004AB1206850E8050F216820F0010041E8C4
:101A90000502002ADAD1206B012824D1206850E801
:101AA000030F216820F0100041E80302DAB120683A
:101AB00050E8030F216820F0100041E8030292B1C2
:101AC000206850E8030F216820F0100041E803026D
:101AD0004AB1206850E8030F216820F0100041E867
:101AE0000302002ADAD1202084F84200002020637B
:101AF00020684169490640F1C78050E8050F216818
:101B000020F0400041E80502002A00F0AB80206888
:101B100050E8050F216820F0400041E80502002A46
:101B200000F0A080206850E8050F216820F04000F8
:101B300041E80502002A00F09580206850E8050F72
:101B4000216820F0400041E80502002A00F08A8068
:101B50002068D2E72046FFF7F3FD0020606402B062
:101B6000B0BD00BF55E8030F226820F4907042E832
:101B70000303D3B3206850E8030F226820F4907069
:101B800042E803038BB3206850E8030F226820F477
:101B9000907042E8030343B3206850E8030F2268C3
:101BA00020F4907042E80303FBB1206850E8030F73
:101BB000DAE700BF206850E8050F226820F0010036
:101BC00042E80503DBB1206850E8050F226820F0E9
:101BD000010042E8050393B1206850E8050F226830
:101BE00020F0010042E805034BB1206850E8050FE2
:101BF000226820F0010042E80503002BDAD1202002
:101C000084F8420000202063206850E8030F226817
:101C100020F0100042E80303DBB1206850E8030F16
:101C2000226820F0100042E8030393B1206850E8D6
:101C3000030F226820F0100042E803034BB1206834
:101C400050E8030F226820F0100042E80303002B45
:101C5000DAD1022289B22046626302B0BDE8B04008
:101C6000FFF76CBDE06B78B142F22101C0F60001D4
:101C70000165FFF7D1F800283FF49DADE06B016DE1
:101C800002B0BDE8B0400847204602B0BDE8B04011
:101C9000FFF756BD206A30F8021B6FF35F216960C1
:101CA0002062E08C01380104E0847FF484ADE868B0
:101CB00020F08000E860E86840F04000E86002B092
:101CC000B0BD0000002804BF0120704710B50446D5
:101CD00090F8410028B9002084F84000204600F028
:101CE00021F8242084F841002068C16821F40051C3
:101CF000C160204600F01CFA2068016921F490417F
:101D00000161416921F02A014161C16841F400513A
:101D1000C16000202021606484F8411084F84210E2
:101D2000606310BD80B586B0016844F60040C4F21F
:101D30000000814202D006B080BD00BF002143F602
:101D400030020191C4F20202136900F5DE3043F45F
:101D500000231361136903F400230193019B019194
:101D6000136843F004031360126802F00402019246
:101D7000019A4FF4406201920222CDE9022103212F
:101D800004910821059101A9FFF758F8342000219A
:101D90000022FFF7B7F93420FFF7A4F906B080BDA1
:101DA00090F84230202B1CBF0220704700294FF0D2
:101DB000010318BF002A01D11846704700230363AE
:101DC000816222218285C285436480F842100169C4
:101DD000006819B1C16841F48071C1604169002394
:101DE00041F001014161C16841F02001C160184624
:101DF00070470000B0B5006844F60041C4F200012D
:101E0000884218BFB0BD40F22805C2F200056888BC
:101E100040F27C01C2F20001014411F8012C0A2AAF
:101E200002D101202870B0BDB0F5FF7F0AD8431C55
:101E300040F23400C2F2000001226B80BDE8B040E5
:101E4000FFF7AEBF40F27C04C2F2000420464FF41C
:101E50000071FEF7FFF940F234000123C2F20000E6
:101E6000214601226B80BDE8B040FFF799BF00001A
:101E700070470000FEE7000070B586B0002543F60D
:101E8000300005950095C4F20200016841F200049B
:101E900041F0800101600168C4F2020401F0800198
:101EA0000091009900950168002241F01001016045
:101EB00001684FF4005601F010010091009900955F
:101EC000016841F001010160016801F00101009128
:101ED00000990095016841F00401016000684FF429
:101EE000005100F00400009000982046FFF784F8AD
:101EF0000120CDE902050320049001A920460196A6
:101F0000FEF79CFF06B070BD80B540F2340044F689
:101F10000041C2F20000C4F2000100234FF00C0C9B
:101F20004FF4E13280E80E00C0E90333C0E905C395
:101F3000C361FFF7C7FE002808BF80BDBDE8804031
:101F4000FEF71CBFFEE70000FEE700007047000040
:101F500070470000FFF75CB8B0B592B0002443F6BC
:101F600040000B94CDE90944CDE907440594CDE93F
:101F70000344CDE901440094C4F202000168022543
:101F800041F080510160006800F08050009000989E
:101F900047F200000094C4F20000016841F480415F
:101FA0000160006800F480400090009801200990D2
:101FB00010200A9008200E90A820CDE90F050420DB
:101FC000119006A80695CDE90C54FFF7E5F918B174
:101FD00072B600BFFEE700BF0F20CDE901054FF448
:101FE000A05004904FF48050059001A8052103945F
:101FF000FFF7C4F810B172B6FEE700BF12B0B0BD73
:102000004EF68850CEF20000016841F47001016084
:102010007047000040F23400C2F20000FFF792BBAC
:10202000806B0021C185C184FFF78ABB81B090F825
:102030004210222920D18368B3F5805F08D101695D
:10204000002957D000F128010A6803685B680AE09C
:10205000014651F8282F13B90369002BF5D0036806
:102060005B6803F07F0313700A6801320A60C18D58
:1020700001390A04C18501D001B070470168CA68FE
:1020800022F02002CA60CA6822F48072CA604A69DB
:1020900022F001024A61202280F84220002242639D
:1020A000036B012B30D1026351E8031F026821F05A
:1020B000100142E803135BB3016851E8031F026893
:1020C00021F0100142E8031313B3016851E8031F24
:1020D000026821F0100142E80313CBB1016851E816
:1020E000031F026821F0100142E8031383B1016865
:1020F000DAE700BF0168826A49686FF35F2122F85E
:10210000021B8262B3E700BF01B0FFF773BE00BFDE
:1021100001680A68D20606D5002200920A68009279
:10212000496800910099818D01B0FFF707BB00005D
:1021300010B504460068D4E902C22369016921F49C
:10214000405111430161626943EA0C01E3691143A3
:10215000C268194349F20C639A431143C160416953
:10216000A26921F4407141F20043114340F48062BE
:10217000C4F201039A42416102D1FFF7C3F801E0C2
:10218000FFF7ACF8E16963681922B1F5004FA0FBD5
:1021900002011FD15A00DB0FFEF712F848F21F515F
:1021A000C5F2EB11A0FB01235A096FF0630302FB98
:1021B0000300322303EBC000A0FB01014FF4F870D1
:1021C00000EA111000EB0210C1F34211226808432B
:1021D000906010BD9A009B0FFDF7F2FF48F21F516F
:1021E000C5F2EB11A0FB01235A096FF0630302FB58
:1021F0000300322303EB0010A0FB0101F02000EAF2
:10220000511000EB0210C1F34311226808439060A3
:1022100010BD0000FEE70000F0B581B030B340F221
:1022200018060446C2F20006002703E0716828463B
:102230008847DCB1E16825462468C80504D4A8684D
:1022400010B1FFF7E9FFE968C80505D4286918B19E
:1022500071688847E9682F618805E7D4286A0028F3
:10226000E4D0716888472F62E0E700BF01B0F0BD9D
:1022700040F22C00C2F20000D0E900100844704780
:1022800070B54FF0000470B10D4661B184686CB157
:10229000266A6EB128463146FDF7EEFF48B1246844
:1022A000002CF5D10024204670BD00BF002070BD79
:1022B0000026002E08BF3446204670BD00280FBF00
:1022C0000020007B2038B0FA80F018BF400970472A
:1022D00000280FBF0020007B0838B0FA80F018BF3C
:1022E0004009704700280FBF0020007B4038B0FA3B
:1022F00080F018BF4009704700280FBF0020007B06
:102300001038B0FA80F018BF40097047002804BFA9
:102310000020704710B50446FDF7A7FF411C20467A
:1023200000220023BDE81040AFF300802DE9F04FFC
:1023300087B0054640F22C0A91460020C2F2000AFE
:10234000002D0690CDE90400CDE90200CDE90000A2
:10235000CAF80000CAF8040000F0A2800F46002965
:1023600000F09E800020029040F21800C2F20000AF
:10237000D0E900128068984606902820CDE90057E1
:10238000CDE904128847002800F08A80282183467E
:10239000FDF760FF052F0DD356A128460322032425
:1023A000FDF778FF00280CBF02940024BC4204D340
:1023B0002FE000BF0024BC422BD27942201D2B18F5
:1023C00013F8042C202A1FD80C18C21E032C0292CA
:1023D0001DD013F8036C202E17D8821E022C0292F7
:1023E00015D013F8026C202E0FD8421E012C029239
:1023F0000DD013F8013C202B07D8029004300A18A6
:10240000042ADCD103E000BF021FBA4201D1781ECA
:1024100002906946584600F0AFFB00283DD0B8F165
:10242000000F5BD0DDE900EC029ABEF1000F2FD067
:1024300062452DD2CCF10007131D0EEB030111F8FC
:10244000042C202A1ED8FC18DA1E032C02921CD061
:1024500011F8030C202816D89A1E022C029214D0D0
:1024600011F8020C20280ED85A1E012C02920CD012
:1024700011F8010C202806D802930433F818042818
:10248000DBD102E01A1F624502D1ACF101020292D7
:10249000624502D21EF8020000B35846FFF7BCFEA8
:1024A000B5B1DDE901124FF0000B0029084618BF55
:1024B00001388A4238BF1046B9F1000F1CBF2918F5
:1024C000C9F80010CAE90050584607B0BDE8F08FBF
:1024D0004FF0000B584607B0BDE8F08FB9F1000F80
:1024E000F2D0009802990844C9F80000584607B095
:1024F000BDE8F08FEFBBBF00FEF798FDFFF72CFDA6
:10250000FFF7BAFCFFF700FD43F6CC54C0F6000419
:10251000204601F0DBFB40F22806C2F2000670887C
:1025200040F27C0540F23408411CC2F20005C2F2C0
:10253000000871802918404601224FF00109FFF779
:102540002FFC00270FF23C0A204601F0BFFB307839
:102550000028F9D0708829462F54504600F098FE84
:10256000284600F097F828464FF40071FDF772FEF8
:102570004046294601223770A6F80290FFF710FC6A
:10258000E2E700BF52656365697665643A202573AA
:1025900000000000B0B50178A1F130020A2A07D28C
:1025A0006FF02F0C4378A3F130020A2A0BD31EE000
:1025B000A1F14102062A0FD26FF0360C4378A3F145
:1025C00030020A2A13D26FF02F0E8278A2F1300463
:1025D0000A2C17D329E000BFA1F16102052A57D8C0
:1025E0006FF0560C4378A3F130020A2AEBD3A3F123
:1025F0004102062A0ED26FF0360E8278A2F1300424
:102600000A2C12D26FF02F04C078A0F130050A2DE9
:1026100016D324E0A3F16102052A39D86FF0560ED3
:102620008278A2F130040A2CECD3A2F14104062CEA
:102630000AD26FF03604C078A0F130050A2D0ED210
:102640006FF02F0518E000BFA2F16104052C1FD820
:102650006FF05604C078A0F130050A2DF0D3A0F138
:102660004105062D02D26FF0360505E0A0F16105A7
:10267000052D0DD86FF056056144090173441944C6
:10268000090122441144090128440844B0BD00BF97
:102690000020B0BD2DE9F041FFF738FE002855D0ED
:1026A0005AA10446FFF7ECFDC0B10546FFF724FE32
:1026B000A0B1296956A000F0EBFD286958A1FDF7EB
:1026C000DBFD58B958A12046FFF7DAFD0546FFF7B4
:1026D000FFFD18B1696956A000F0DAFD59A1204646
:1026E000FFF7CEFD0546FFF7E9FD002844D057A0CF
:1026F00000F0CEFDE5B1AD68D5B101260FF260184E
:1027000058A709E095ED060B384653EC102B00F066
:10271000BFFD00262D685DB12846FFF7D9FD0028D2
:10272000F8D0002EEED1404600F0B2FDEAE700BF3F
:102730004EA12046FFF7A4FD0546FFF7DDFDA8B139
:1027400029694CA000F0A4FD16E000BFFFF790FD42
:10275000002808BFBDE8F081014643F6B450C0F63A
:102760000000BDE8F04100F093BD00BF43F6EE501D
:10277000C0F6000001F0AAFA40A12046FFF780FD54
:102780000646FFF7AFFDE0B33DA13046FFF778FD09
:1027900007463CA13046FFF773FD05463BA1304696
:1027A000FFF76EFD06463BA12046FFF769FD804618
:1027B0003846FFF78DFD002814BF7F6900272846A3
:1027C000FFF786FD002814BF6D6900253046FFF72E
:1027D0007FFD002814BF7369002331A039462A46C3
:1027E00000F056FD4046FFF773FD20B1D8F81410F5
:1027F00033A000F04DFD43F6EE50C0F6000001F0AE
:1028000065FA2046BDE8F041FFF706BD636D640040
:10281000436F6D6D616E643A2025730D0A000000F0
:10282000746573740000000076616C7565000000CB
:10283000546573742076616C75653A2025640D0AC1
:102840000000000073656E736F72730053656E73E2
:102850006F722072656164696E67733A20000000D0
:102860002C200000252E326600000000756E697471
:10287000000000002025730D0A0000006C65640054
:1028800072656400677265656E000000626C756554
:10289000000000006475726174696F6E00000000D2
:1028A0004C454420636F6E74726F6C3A20523D2524
:1028B000642C20473D25642C20423D256400000007
:1028C00020666F722025646D730000002DE9F04FC3
:1028D00081B00C460968A2688F18BA461AF8012B15
:1028E000222A40F0408181466068AAEB01028242C0
:1028F00080F0398101250022564607E0222B11D0B5
:1029000001357E19731A834280F02D817B5D5C2B2B
:10291000F4D101357B195B1A834280F024810132A6
:10292000EEE700BF216906F10108D019A8EB00000D
:102930008847002800F017818446CDF80080022DDA
:102940008046C0F2038107EB050BE04607E000BFBD
:102950000AF1010A08F8010BDA4580F0F7809AF8CD
:1029600000005C28F4D1A6EB0A000128C0F2F88030
:102970009AF80110A1F12202532A00F2F180DFE857
:1029800012F05500EF00EF00EF00EF00EF00EF0056
:10299000EF00EF00EF00EF00EF00EF005500EF0059
:1029A000EF00EF00EF00EF00EF00EF00EF00EF00AF
:1029B000EF00EF00EF00EF00EF00EF00EF00EF009F
:1029C000EF00EF00EF00EF00EF00EF00EF00EF008F
:1029D000EF00EF00EF00EF00EF00EF00EF00EF007F
:1029E000EF00EF00EF00EF00EF00EF00EF00EF006F
:1029F000EF00EF00EF005500EF00EF00EF00EF00F9
:102A0000EF005D00EF00EF00EF005F00EF00EF0070
:102A1000EF00EF00EF00EF00EF006100EF00EF00CC
:102A2000EF006300EF0065006F0000BF08F8011BB6
:102A300002208244DA45FFF492AF87E0082006E0E6
:102A40000C2004E00A2002E00D2000E0092008F834
:102A5000010B02208244DA45FFF481AF76E000BF2B
:102A60000628C0F27D800AF102006746FFF792FD5A
:102A7000054640F2FF3025EA0000B0F5584F0BD074
:102A8000B0F55C4FBC464FF0020269D0802D2BD2CE
:102A90000121062053E000BF0AF10600311A062981
:102AA000BC465DDB00785C285AD19AF8070075288F
:102AB00056D10AF10800FFF76DFD40F2FF3120EA20
:102AC00001010222BC46B1F55C4F49D16FF39F2052
:102AD00065F3932000F580350C20290C10293FD890
:102AE0004FF0F00E04210FE0B5F5006F04D24FF067
:102AF000C00E0221062007E0B5F5803F4FF006002A
:102B0000EBD24FF0E00E03214B1EDFB22B4662F3F7
:102B10009F1308F8073002294FEA95130DD0474458
:102B200062F39F1307F8013C03294FEA153304D0E1
:102B300062F39F1307F8023CAB0C43EA0E0588F8DA
:102B4000005088448244DA45FFF409AF002088F839
:102B500000001020DDF800A0C9E9030C012003E00B
:102B600061696046884700202168AAEB0101A160E5
:102B700001B0BDE8F08F00002DE9F04F93B00029BF
:102B800040D00E688B46002E00F07D83D94659F860
:102B9000085F824659F8044C2F1DA7420AD843F615
:102BA000FB517019C0F6000104224FF00408FDF734
:102BB00071FB68B305F10508A04508D843F6F0514C
:102BC0007019C0F600010522FDF764FB50B3A7425F
:102BD0000AD843F6F6517019C0F600010422FDF739
:102BE00059FB002800F08080A54280F04C83715D85
:102BF000222921D15046594613B0BDE8F04FFFF7C6
:102C000065BE00BF0026304613B0BDE8F08F00BFA0
:102C1000CAF80C80C9F800700126304613B0BDE830
:102C2000F08F00BF0126CAF80C60C9F8008030465A
:102C300013B0BDE8F08F00BF2D2906EB05005FD073
:102C4000A1F13002092A5BD97B2900F0A5805B291C
:102C500040F01983DBF80C10CA087C2A00F21383B9
:102C60004A1CCBF80C2000785B2840F00C83681CD1
:102C7000A042C9F8000080F0F680624206EB08032B
:102C800013F8040C202800F2E78002EB0807A8F1F3
:102C90000300032FC9F8000000F0E28013F8035C82
:102CA000202D00F2DB80A8F10200022FC9F80000FD
:102CB00000F0D68013F8025C202D00F2CF80A8F13E
:102CC0000100012FC9F8000000F0CA8013F8013C90
:102CD000202B00F2C380C9F8008008F1040802EB41
:102CE00008000428CAD1BBE002200126CAF80C0063
:102CF000CAF81460C9F80070304613B0BDE8F08F10
:102D00000D270021621B02AD4FF00103C0F2004706
:102D1000129138BF0A4607E003FA04F43C420ED091
:102D20006E5401313F290FD08A420BD0465CA6F188
:102D300030040A2CF4D3A6F12B041A2CECD9652EFE
:102D4000EED002E0114600E03F2100266E5412A9A9
:102D5000284600F0DDFA129CA5423FF454AF9FEDE7
:102D6000B01B58EC106B53EC112B304641468AEDEA
:102D7000060BFDF783FD002858D19FEDAB0B3046C5
:102D800053EC102B4146FDF75EFD002852D1304632
:102D90004146FDF78EFD4FE0DBF80C10CA087C2A97
:102DA00000F271824A1CCBF80C2000787B2840F09E
:102DB0006A82681CA042C9F8000080F01C8162424F
:102DC00006EB080313F8040C202800F20D8102EB37
:102DD0000807A8F10300032FC9F8000000F00881DC
:102DE00013F8035C202D00F20181A8F10200022FEC
:102DF000C9F8000000F0FC8013F8025C202D00F2FE
:102E0000F580A8F10100012FC9F8000000F0F08062
:102E100013F8013C202B00F2E980C9F8008008F18A
:102E2000040802EB08000428CAD1E1E06FF000407A
:102E300002E000BF4FF00040CAF814000820CAF8B2
:102E40000C00D9F80000611B0844C9F800000126F5
:102E5000304613B0BDE8F08FA8F10400A04202D1C3
:102E6000601EC9F80000A04280F0D280325C5D2A6A
:102E700008D1CBF80C104FF0000820210130CAE92E
:102E80000281E2E701384FF000080024CBF8080087
:102E9000DBF8101028208847002800F099802821AE
:102EA0000646FDF7D7F9B8F1000F1ABF2660746027
:102EB000B046DBF80820DBF80010531CCBF80830D4
:102EC000A9B3DBF804C0634531D2CCF1000305326D
:102ED0008D1815F8047C202F22D89C18D71E032C9F
:102EE000C9F800701FD015F8030C202819D8971EB8
:102EF000022CC9F8007016D015F8020C202810D842
:102F0000571E012CC9F800700DD015F8010C2028AF
:102F100007D8C9F80020043298180428D8D102E054
:102F2000171F674503D1ACF10100C9F80000304616
:102F30005946FFF721FE00284AD0DBE9001CDBF8E8
:102F40000800A1B3604532D2CCF10007031DCD18B3
:102F500015F8040C202823D8FC18D81E032CC9F817
:102F6000000020D015F8032C202A1AD8981E022C15
:102F7000C9F8000017D015F8022C202A11D8581EC5
:102F8000012CC9F800000ED015F8012C202A08D811
:102F9000C9F800300433F8180428D8D103E000BF82
:102FA000181F604503D1ACF10100C9F8000060456D
:102FB0000ED2095C34462C293FF46AAF5D2907D153
:102FC000DBF80C100139CBF80C10C8F8046054E79A
:102FD000B8F1000F1CBF4046FFF71EF9002630462F
:102FE00013B0BDE8F08F00BFA8F10400A04202D1E9
:102FF000601EC9F80000A0420AD2325C7D2A17D1B7
:10300000CBF80C10002440210130CAE902411CE732
:103010000138C9F800000026304613B0BDE8F08F33
:103020000000C0FFFFFFDF41000000000000E0C122
:10303000013800240025CBF80800DBF81010282008
:103040008847002800F01B8128218046FDF702F9FF
:10305000002C1ABFC5F80080C8F804504446DBE9CC
:103060000102531C834280F00B81DBF800100194B5
:10307000CBF8083081B3434205328D1815F8047C33
:10308000202F23D89C18D71E032CC9F8007020D0FD
:1030900015F8036C202E1AD8971E022CC9F8007060
:1030A00017D015F8026C202E11D8571E012CC9F824
:1030B00000700ED015F8016C202E08D8C9F8002039
:1030C00004329F18042FD8D103E000BF171F874296
:1030D00002D10138C9F8000040465946FFF7F6FB17
:1030E000002800F0CB80DBE90010DBF8082089B372
:1030F00082422FD24742131DCD1815F8042C202AE6
:1031000022D8FC18DA1E032CC9F800201FD015F8AD
:10311000036C202E19D89A1E022CC9F8002016D054
:1031200015F8026C202E10D85A1E012CC9F8002068
:103130000DD015F8016C202E07D8C9F800300433E3
:10314000FA18042AD8D102E01A1F824202D1421E84
:10315000C9F80020D8F810308242C8F820304FF06B
:103160000003C8F8103080F089808B5C3A2B40F067
:103170008580531C8342C9F800302FD24342053268
:103180008D1815F8047C202F22D89C18D71E032CEC
:10319000C9F800701FD015F8036C202E19D8971E9F
:1031A000022CC9F8007016D015F8026C202E10D829
:1031B000571E012CC9F800700DD015F8016C202E97
:1031C00007D8C9F8002004329F18042FD8D102E094
:1031D000171F874202D10138C9F8000040465946FE
:1031E000FFF7CAFC002849D0DBE90012DBF8080031
:1031F00091B3904230D25742031DCD1815F8040CFC
:10320000202823D8FC18D81E032CC9F8000020D091
:1032100015F8036C202E1AD8981E022CC9F800004D
:1032200017D015F8026C202E11D8581E012CC9F8A1
:1032300000000ED015F8016C202E08D8C9F8003017
:103240000433F8180428D8D103E000BF181F9042B7
:1032500002D1501EC9F8000090420FD2095C019CB7
:103260002C2945463FF4E9AE7D2908D1DBF80C1046
:103270000139CBF80C10C4F80480C4E6019C14B1E9
:103280002046FEF7C9FF0026304613B0BDE8F08F98
:103290000FB4054B10B503A9044A029800F04EF98B
:1032A00010BC5DF814FB00006B3C0008000000201F
:1032B00030B528B1144C031F002021680A4605E0F0
:1032C000084630BD9A4203D810465268002AF9D108
:1032D000002800D041680BD00468A3EB0005A5428C
:1032E00004D11B681C440346046002E0436000E014
:1032F00023603AB11C68D51AA54203D115682C4445
:103300001C6052685A6030BD0400002000000000BC
:1033100000B583B09FED060B0A4601468DED000B0C
:1033200001236846FDF76BFB9DED000B03B000BD6C
:1033300000000000000000002DE9F04782460F4C1D
:1033400010480D4E0E4F001B4FF0000820F00705EF
:103350004FF0010900221146504600F08FFC002872
:1033600002D1306810B10020BDE8F0873C60C4E9AC
:103370000058C6F80090EDE7080000208402002005
:10338000040000208004002002E008C8121F08C1C9
:10339000002AFAD170477047002001E001C1121FD6
:1033A000002AFBD1704700002DE9FF5F82B00021A9
:1033B000DDE90430020DDDF840B0034318D044F6D7
:1033C0001050A2F2FF3242431514119801281FD069
:1033D000A5EB0B00401C5FEA000A4FF000064E4FC1
:1033E000DFF83891B046504615D5CAF1000413E015
:1033F000119801244AA3012801D16FEA0B01029818
:10340000119AC0E90031C0E9024206B0BDE8F09F60
:10341000CBF10000DFE704460021404A491842EBA7
:103420000450CDE9001012E0E00707D032463B46D9
:1034300040464946FDF795F98046894632463B4667
:1034400010461946FDF78DF906460F466410002C0C
:10345000EAD1DDE90401DDE90023BAF1000F06DA63
:10346000FDF77FF942464B46FDF77BF905E0FDF796
:1034700058FB42464B46FDF754FB04460E460022DD
:10348000284BFDF7E1FB03D84FF0FF30014607E082
:103490000022254B20463146FDF7BCF8FDF7BCFB6A
:1034A000102409E0002C0ADB0A220023FCF788FE26
:1034B000039B30321A55641E50EA0102F2D1641C9B
:1034C000039AC4F111031444119A012A03D0012272
:1034D00008430DD10AE0084304D000204FF0110B3F
:1034E000119072E7A3EB0B056D1E0DE05B4504DD4B
:1034F0004FF0000205F1010504E003DA4FF000028D
:10350000A5F10105002AECD002981199C0E9023119
:10351000C0E9004579E70000000014400000F03FDA
:10352000300000000000F0430000E03F30380A287F
:1035300001D2012070470020704700002DE9FF4FA5
:1035400095B09B468946064600250FE2252877D18F
:1035500000242746F84A0121059400E0044316F8A8
:10356000013F203B01FA03F01042F7D130782A28BE
:1035700011D06FF02F033078A0F13002092A16D84D
:10358000059A44F0020402EB820203EB420210446B
:10359000761C0590EFE759F8042B0592002A03DA10
:1035A000504244F40054059044F00204761C3078F4
:1035B0002E2816D116F8010F44F004042A280DD045
:1035C0006FF02F023078A0F13003092B09D807EBF8
:1035D000870302EB4303C718761CF3E759F8047B13
:1035E000761C30786C280FD006DC4C2817D0682861
:1035F0000DD06A2814D104E0742810D07A280FD195
:103600000DE044F400140AE044F4801401E044F4B2
:1036100040147278824202D104F58014761C761C24
:10362000307866280BD013DC582877D009DC0028C6
:1036300075D04528F6D04628F4D047281AD19DE108
:1036400018E0632835D0642879D0652812D195E137
:10365000702873D008DC6728F1D069286FD06E28F5
:103660000DD06F2806D1B5E073282CD0752875D001
:10367000782874D05A46179990476D1C75E1C4F3A9
:103680000250022809D003280DD0D9F800100428D0
:103690000DD00D6009F1040967E1D9F80010EA17AF
:1036A000C1E90052F6E7D9F800100D80F2E70D707D
:1036B000F0E719F8041B8DF8001000208DF80100C8
:1036C000EA46012003E059F804AB4FF0FF306107F0
:1036D0004FF0000102D40DE008F101018846B94223
:1036E0000FDA8045F8DB1AF808100029F4D108E059
:1036F00008F1010188468142FADB1AF80810002916
:10370000F6D105985B46A0EB080721463846179A84
:1037100000F094FA284400EB080507E04DE029E1A9
:103720000DE01AF8010B5A4617999047B8F10108B5
:10373000F7D25B4621463846179A13E142E00A2247
:103740000092C4F302524FF0000A022A08D059F83E
:1037500004CB032A4FEAEC710AD00DE029E02AE0FD
:1037600009F1070121F00702F2E802C1914609E0E0
:103770000FFA8CFC4FEAEC71042A03D14FFA8CFC4F
:103780004FEAEC71002907DA0A460021DCF1000C4F
:1037900061EB02012D2202E0220504D52B228DF8D7
:1037A0000420012203E0E20701D02022F7E790463F
:1037B00059E00A2102E010220DE010214FF0000A2A
:1037C00000910BE010224FF0000A44F00404082797
:1037D000009203E008224FF0000A0092C4F3025264
:1037E000022A05D059F804CB0021032A08D009E0A9
:1037F00009F1070121F00702F2E802C1914605E054
:103800001FFA8CFC042A01D10CF0FF0C4FF00008C9
:10381000220728D5702806D0009B83F0100353EAB6
:103820000A0305D00EE040228DF80420012208E0B2
:103830005CEA010206D030228DF804208DF80500E4
:1038400002229046009B83F0080353EA0A030AD140
:103850005CEA010201D1620705D530228DF804200F
:103860004FF001087F1E582804D034A003900EA802
:1038700002900DE036A0F9E753466046009AFCF747
:103880009FFC84460398825C0298401E029002705E
:103890005CEA0100F0D1029806A9081A00F1200A9A
:1038A000600702D524F4803400E00127574502DD8B
:1038B000A7EB0A0000E0002000EB0A010090059849
:1038C0004144401A0590E00306D45B462146179A0E
:1038D000059800F0B3F90544002706E001A85A4610
:1038E000C05D179990476D1C7F1C4745F6DBE003D0
:1038F0000CD55B462146179A059800F09FF90544C0
:1039000004E030205A46179990476D1C0099481ED4
:1039100000900029F5DC08E0029802995A460078E8
:10392000491C0291179990476D1CBAF10001AAF148
:10393000010AF1DC65E10000092801003031323371
:1039400034353637383961626364656600000000DB
:1039500030313233343536373839414243444546C5
:103960000000000000F058F90544761C307800286B
:103970007FF4ECAD19B02846BDE8F08F620700D4A3
:10398000062709F1070222F0070CFCE80223E146B2
:1039900003F000485FEA080C02D00FF2702C0DE033
:1039A0005FEA045C02D50FF2682C07E05FEAC47C92
:1039B00002D00FF2602C01E0AFF2700C4FF0FF3834
:1039C00023F00043CDF850C065280CD006DC452814
:1039D00009D046281DD047283DD13DE0662818D0A3
:1039E00067287ED138E00021112F01DB112000E093
:1039F000781CCDE9000106A90EA8FFF7D5FCDDE98A
:103A00000F010E9A03910021009207F1010A04911F
:103A10004DE04FF000400097CDE9011006A90EA837
:103A2000FFF7C2FCDDE90F0203920E9B1199002201
:103A3000DDF80CA00093049211B9791C00EB010A87
:103A4000B7EB0A0004D4C0F1FF3007F1010A04907B
:103A5000AAEB0700019044E0012F00DA01270021C2
:103A6000112F01DD112000E03846CDE9000106A943
:103A70000EA8FFF799FCDDE90F010E9A03910021D2
:103A800004910092BA4621070CD40399514500DAFB
:103A90008A46BAF1010F05DD009AAAF10101515CD5
:103AA000302908D0B84202DA10F1040F06DA0121F9
:103AB000CDE9011015E0AAF10101E9E7002805DCD4
:103AC000049901440491AAEB000102E0411C514514
:103AD00000DD8A460499401A401C01904FF00040D6
:103AE0000290200704D40198504501DBCDF80480F2
:103AF00000208DF84F0002980DF14F07B0F1004FF4
:103B000025D02B200E9002984FF0020800280CDAE6
:103B1000404202902D200E9007E00A210298FCF707
:103B2000E7FE3031029007F8011DB8F10001A8F15D
:103B30000108F2DC02980028EFD1791E0E98087077
:103B4000307800F0200040F0450007F8020D12A880
:103B5000C01B00F107081498007800B1012000EBA9
:103B60000A01019801EBE07105984144401A401E9A
:103B70000590E00306D45B462146179A059800F0AD
:103B80005DF805441498007818B15A461799904783
:103B90006D1CE00324D55B462146179A059800F07A
:103BA0004DF805441CE00498002807DBDDE903011B
:103BB000884203DD0098405C179901E01799302096
:103BC0005A469047049805F10105401C049001985D
:103BD000401E019004D12E205A46179990476D1C23
:103BE000BAF10001AAF1010ADDDC05E017F8010BCA
:103BF0005A46179990476D1CB8F10001A8F10108C9
:103C0000F4DC5B462146179A0598ABE62D000000D0
:103C10002B000000200000002DE9F04104460025A3
:103C20001E461746880404D405E039462020B047D4
:103C30006D1C641EF9D52846BDE8F0812DE9F041E0
:103C4000044600251E469046C80301D5302700E0F3
:103C50002027880404D505E041463846B0476D1C4E
:103C6000641EF9D52846BDE8F08138B504468DF8C4
:103C7000000069460320ABBE204638BD2DE9F04167
:103C80000B3020F00706104D19E02068B04215D324
:103C9000B0420AD9871B201DD4F80480FCF7C1FA72
:103CA000A019C0E90078286004E060682860201D41
:103CB000FCF7B7FA201D2660BDE8F081251D2C68B1
:103CC000002CE2D10020F7E70400002010B50446E4
:103CD00001E0FFF7CAFF14F8010B04490028F8D1EE
:103CE000BDE810400A20FFF7C0BF00000000002020
:103CF0002DE9F04704008A4616D054F8047CD4F825
:103D000000903E1F564500D956462046FFF7D0FA90
:103D100005468846324621465046FFF7AFFF40B180
:103D2000C0F80090BDE8F087BDE8F0470846FFF70F
:103D300003BB44E9017955B129686A18211F8A42F9
:103D400002D9611B091F2960C5F80480EAE7024A0D
:103D5000C2F80080E6E7000004000020DDDDDDDDC4
:103D6000DCBBBBDDDDDDDDDDDDDDDDDD988888880C
:103D700088888888777777777788888885555556B3
:103D8000666666666666666666688888833333320A
:103D900022222222222222222228888D00000000B4
:103DA00000000000010203040607080900000000EB
:103DB000010203044A534F4E204572726F72206213
:103DC00065666F72653A2025730D0A0053544D33B2
:103DD000324634303720555341525434204A534FE1
:103DE0004E205061727365722052656164790D00D6
:103DF00066616C73650074727565006E756C6C003D
:103E0000203E000800000020280000008833000841
:103E1000483E000828000020580800009833000899
:103E20000000000000000000000000000100000091
:103E3000100000000024F40039330008B1320008FB
:083E4000F13C00080000000045
:040000050800018965
:00000001FF
