:020000040800F2
:10000000D0050020A10100087D1A0008771600081D
:10001000411A0008AD020008852000080000000019
:10002000000000000000000000000000811A00082D
:10003000AF020008000000007F1A0008831A0008C1
:10004000BB010008BB010008BB010008BB010008A0
:10005000BB010008BB010008BB010008BB01000890
:10006000BB010008BB010008BB010008BB01000880
:10007000BB010008BB010008BB010008BB01000870
:10008000BB010008BB010008BB010008BB01000860
:10009000BB010008BB010008BB010008BB01000850
:1000A000BB010008BB010008BB010008BB01000840
:1000B000BB010008BB010008BB010008BB01000830
:1000C000BB010008BB010008BB010008BB01000820
:1000D000BB010008BB010008BB0100087920000833
:1000E000BB010008BB010008BB010008BB01000800
:1000F000BB010008BB010008BB010008BB010008F0
:10010000BB010008BB010008BB010008BB010008DF
:10011000091E0008BB010008BB010008291B0008DC
:10012000BB010008BB010008BB010008BB010008BF
:10013000BB010008BB010008BB010008BB010008AF
:10014000BB010008BB010008BB010008BB0100089F
:10015000BB010008BB010008BB010008BB0100088F
:10016000BB010008BB010008BB010008BB0100087F
:10017000BB010008BB010008BB0100080000000033
:10018000BB010008BB010008DFF810D000F07CF8CC
:10019000004800478D210008AFF30080D005002003
:1001A0000648804706480047FEE7FEE7FEE7FEE711
:1001B000FEE7FEE7FEE7FEE7FEE7FEE7191B0008A5
:1001C000890100082DE9F05F0546002092469B4614
:1001D00088460646814640241BE02846414647465D
:1001E000224600F041F853465A46C01A914110D3B6
:1001F00011461846224600F028F82D1A67EB010830
:100200004F4622460120002100F01FF817EB00099D
:100210004E41201EA4F10104DFDC484631462A4647
:100220004346BDE8F09FD2B201E000F8012B491E21
:10023000FBD270470022F6E710B513460A46044683
:100240001946FFF7F0FF204610BD202A04DB203AB4
:1002500000FA02F1002070479140C2F1200320FA19
:1002600003F3194390407047202A04DB203A21FA17
:1002700002F00021704721FA02F3D040C2F12002BF
:100280009140084319467047064C074D06E0E06868
:1002900040F0010394E8070098471034AC42F6D3CD
:1002A000FFF776FF2423000844230008FEE7704789
:1002B00072B6FEE72DE9F0410446876D00F080F943
:1002C000064694F835000025022806D08020606597
:1002D00084F834500120BDE8F0812068016821F0E5
:1002E000160101602068416921F080014161206CA4
:1002F00008B9A06C20B12068016821F008010160F4
:100300002068016821F0010101600CE000F058F95B
:10031000801B052807D920206065032084F835005C
:1003200084F83450D7E720680068C007EED194F80D
:100330005C103F208840B860012084F8350084F8C4
:1003400034500020C7E790F83510022903D08021EF
:10035000416501207047052180F83510006801686B
:1003600021F00101016000207047000070B50446D3
:1003700000F026F90546601C02D0044800780444C9
:1003800000F01EF9401BA042FAD370BD18000020F7
:1003900070B54FF0E024002265690949A369096836
:1003A0004843A1699942FCD002D2A3EB010302E0C9
:1003B000A5EB010633441A440B468242F1D370BDCB
:1003C000100000202DE9F84FDFF8BCA10022012524
:1003D0000AF1040B03264FF00F090BF1040E00BFC6
:1003E0000B6805FA02F42340A34270D10F7907F09D
:1003F0000307012F01D0022F16D187684FEA420868
:1004000006FA08FC27EA0C07D1F80CC00CFA08FC25
:100410004CEA070CC0F808C04768A7430C79C4F33E
:10042000001494403C4344600C79E443A4070AD090
:10043000C4684FEA420C06FA0CF7BC438F6807FA0F
:100440000CF72743C7600C7904F00304022C12D187
:10045000D40800EB840CDCF820405707FF0E09FAA3
:1004600007F824EA0804D1F8108008FA07F848EAE7
:100470000408CCF8208004684FEA420C06FA0CF716
:10048000BC430F7907F0030707FA0CF7274307600F
:100490004C6814F4403F70D03C4C276847F48047C8
:1004A0002760246822F0030704F480440094384C49
:1004B00007EB040CDCF8084897074FEA177809FAAD
:1004C00008F7BC43334FB84202D1002724E054E080
:1004D000314FB84201D101271EE0304FB84201D15F
:1004E000022719E02E4FB84201D1032714E02D4F07
:1004F000B84201D104270FE02B4FB84201D10527A4
:100500000AE02A4FB84201D1062705E0284FB84239
:1005100001D1072700E0082707FA08F72743CCF89E
:100520000878DAF800405746D1F804C09C435FEAE7
:10053000CC3C00D51C433C60DBF800405F46D1F862
:1005400004C09C435FEA8C3C00D51C433C60DEF851
:1005500000407746D1F804C09C435FEACC2C00D51C
:100560001C433C60084F0C373C68D1F804C09C43E6
:100570005FEA8C2C00D51C433C60521C102AFFF40F
:100580002FAFBDE8F88F0000003C01404438024026
:100590000030014000000240000402400008024018
:1005A000000C0240001002400014024000180240FB
:1005B000001C02400AB1816170470904FBE700009A
:1005C00001488068704700001800002002488168D8
:1005D0000278114481607047180000200B4810B564
:1005E000016841F400710160016841F480610160BB
:1005F000016841F480710160032000F06FF80F2062
:1006000000F006F800F024F8002010BD003C024085
:1006100070B50D4D04464FF47A712878B1FBF0F0B7
:100620000A490968B1FBF0F000F00AFB48B9102C48
:1006300007D200222146501E00F030F800206C60E6
:1006400070BD012070BD00001800002024000020B3
:100650000A4808B5016841F480410160006800F46F
:10066000804000900548001F016841F08051016002
:10067000006800F08050009008BD0000443802403F
:10068000002809DB00F01F02012191404009800091
:1006900000F1E020C0F8001170470000F0B40E4BEC
:1006A0001B680C46C3F30223C3F10705042D00D9D0
:1006B0000425191D072901D2002300E0DB1E0126B5
:1006C00006FA05F1491E214099409E40761E1640CB
:1006D0003143F0BC01F0D7BC0CED00E0064900F05E
:1006E000070208684FF6FF03184040EA0220034A59
:1006F00010430860704700000CED00E00000FA05B0
:100700002DE9F0470E46050065D0DFF81481D8F8D2
:100710000000F7B200F00700B04207D288F800707E
:10072000D8F8000000F00700B04254D128683D4CD2
:10073000810712D5400703D5206840F4E0502060BF
:100740002878000703D5206840F4604020602068C6
:10075000A96820F0F000084320602878C0072DD059
:10076000304968680839012812D0022813D00328BC
:1007700011D00968890700292DDA216821F00301C9
:1007800001432160FFF71CFF814641F2883A0EE0E9
:1007900009688903EFE709688901ECE7FFF710FFB3
:1007A000A0EB0901514502D90320BDE8F08720687C
:1007B000696800F00C00B0EB810FEFD1D8F80010A1
:1007C000404601F00701B14207D90770006800F008
:1007D0000700B04201D00120E7E72878400705D59F
:1007E0002068E96820F4E05008432060287800077A
:1007F00006D52068296920F4604040EAC1002060E5
:1008000000F038F82168084AC1F30311515CC84070
:100810000649086006480068FFF7FAFE0020C4E7B2
:10082000003C0240083802400C230008240000204D
:100830001C0000200448054900680968044AC1F307
:100840008221515CC84070472400002008380240D3
:100850001C2300080448054900680968044AC1F3DC
:100860004231515CC84070472400002008380240E3
:100870001C230008154810B5006810F00C0214483D
:1008800013D04110042A0FD0082A0ED10F4C241F78
:100890002268236802F03F025B0207D52068C0F39C
:1008A0008810A0FB010106E0084610BD2168C1F3D5
:1008B0008811A1FB00010023FFF784FC2168C1F32C
:1008C0000141491C4900B0FBF1F010BD083802405D
:1008D0000024F4002DE9F84F04006ED02078DFF8F2
:1008E0004C93C007A9F104054AD009F1040001683E
:1008F000C1F38101012908D00068C0F381000228FA
:100900000AD1D9F80000400206D52868800337D5FF
:1009100060680028E1D033E06068B0F5803F10D017
:10092000B0F5A02F286810D020F480302860286807
:1009300020F4802028606068A8B1FFF741FE0646D9
:100940000DE0286840F48030F4E740F4802028600F
:10095000F7E700BFFFF734FE801B642873D82868D0
:100960008003F7D50CE0FFF72BFE064605E000BF3D
:10097000FFF726FE801B6428F0D828688003F7D490
:100980002078DFF8AC8280074FF0000A3ED5A748F8
:10099000001D016811F00C0F08D00068C0F3810041
:1009A00002280BD1D9F80000400207D4286880073C
:1009B00016D5E068012800D112E033E1E068B8B153
:1009C0000120C8F80000FFF7FBFD064605E000BF68
:1009D000FFF7F6FD801B0228C0D828688007F7D5EE
:1009E0002868216920F0F80040EAC10028600DE085
:1009F000C8F800A0FFF7E4FD064604E0FFF7E0FDBD
:100A0000801B02281FD828688007F7D420780007A9
:100A100022D5864F87486169703771B10121016025
:100A2000FFF7CEFD064604E0FFF7CAFD801B022853
:100A300009D838688007F7D50EE0C0F800A0FFF7A6
:100A4000BFFD064605E082E0FFF7BAFD801B0228E5
:100A50007DD838688007F7D42078400768D5DFF85C
:100A6000CCB100270BF13C0BDBF80000C0000BD42D
:100A7000DBF8001041F08051CBF80010DBF80000EB
:100A8000012700F0805000906B4E3068C00510D4F4
:100A9000306840F480703060FFF792FD009005E010
:100AA000FFF78EFD0099401A022850D83068C00523
:100AB000F6D55E4EA0686C3601280FD00528306848
:100AC00010D020F001003060306820F00400306069
:100AD000A068B8B1FFF774FD00900FE0306840F0F7
:100AE0000100F4E740F004003060F7E7FFF768FD2D
:100AF0000099411A41F28830814266D830688007F7
:100B0000F4D50EE0FFF75CFD009007E0FFF758FD1D
:100B10000099411A41F28830814256D830688007E6
:100B2000F4D42FB1DBF8001021F08051CBF8001085
:100B3000A069C8B33D49091D0968C1F381010229B3
:100B40004AD00228504607D0C8F8600000E03CE0D8
:100B5000FFF736FD04463BE04746C8F86000FFF764
:100B60002FFD064605E000BFFFF72AFD801B022887
:100B70002BD828688001F7D4D4E907010843A16A7B
:100B80002E4A490802EB0141626A41EA8211084398
:100B900094F82C1040EA0161C9F800100120386671
:100BA000FFF70EFD044606E03EE000BFFFF708FD3C
:100BB000001B022809D828688001F7D534E000BF5F
:100BC000FFF7FEFC001B022802D90320BDE8F88FC6
:100BD00028688001F4D427E00128F7D0D9F8000074
:100BE000E26900F4800191421CD1226A00F03F01C9
:100BF000914217D147F6C071626A0140B1EB821F82
:100C000010D1A26A4FF0FF3300F4403103EB5202DF
:100C1000B1EB024F06D194F82C1000F07060B0EBED
:100C2000016F01D00120D1E70020CFE70438024056
:100C300000004742800E4742007000400000FFFF66
:100C400010B5401EB0F1807F01D3012010BD4FF0E0
:100C5000E02460610F21601701F015FA0020A06107
:100C600007202061002010BD7047704770B590F8D4
:100C70003C20012A32D0012480F83C40022280F836
:100C80003D2003685A689D6822F070060A68324366
:100C90005A60134B02689A4214D0B2F1804F11D0BF
:100CA000104B9A420ED0104B9A420BD00F4B9A42E7
:100CB00008D00F4B9A4205D00E4B9A4202D00E4BF1
:100CC0009A4204D1496825F080031943916080F865
:100CD0003D40002180F83C10084670BD022070BDE8
:100CE000000001400004004000080040000C0040EB
:100CF00000040140004001400018004010B504000D
:100D000003D094F83D0010B107E0012010BD002091
:100D100084F83C00204600F01FF8022084F83D00D3
:100D2000211D206800F006FF012084F8460084F8A9
:100D30003E0084F83F0084F8400084F8410084F8C5
:100D4000420084F8430084F8440084F8450084F8A5
:100D50003D00002010BD000008B5114A016811488F
:100D6000914208D1016841F004010160006800F07F
:100D70000400009008BD0C4A9142FBD1016841F08B
:100D8000200101600068002200F020000090114660
:100D90003720FFF783FCBDE808403720FFF770BC21
:100DA00000080040403802400014004070B504467E
:100DB00090F83C000025012817D0012684F83C60FB
:100DC000022084F83D002068826822F0770222F435
:100DD0007F4282600868502838D00DDC20284FD030
:100DE00005DC90B3102811D14AE0022070BD3028F4
:100DF00046D040280AD13BE060282FD070280DD083
:100E0000B0F5805F03D0B0F5005F12D0012584F803
:100E10003D60002084F83C00284670BDCB68D1E9D5
:100E20000121206800F0F7FE2068816841F0770119
:100E300009E0CB68D1E90121206800F0ECFE2068D0
:100E4000816841F480418160E1E719E0CA6849683E
:100E5000206800F0B5FF5021206806E0CA684968A4
:100E6000206800F0BEFF6021206800F0DEFECEE7C3
:100E7000CA684968206800F0A3FF40212068F4E7B1
:100E8000226801461046F0E7704770B504460068D6
:100E900001694FF00005C943890715D4C168C943EA
:100EA000890711D4E91E016101202077206880693B
:100EB0008007204602D0FFF7E7FF04E000F0C2F809
:100EC000204600F054F9257720680169C943490795
:100ED00017D4C168C943490713D46FF004010161F5
:100EE000022020772068806910F4407F204602D0DD
:100EF000FFF7CAFF04E000F0A5F8204600F037F93C
:100F0000257720680169C943090716D4C168C94318
:100F1000090712D46FF008010161042020772068CE
:100F2000C0698007204602D0FFF7AEFF04E000F062
:100F300089F8204600F01BF9257720680169C9432C
:100F4000C90617D4C168C943C90613D46FF010018C
:100F50000161082020772068C06910F4407F204696
:100F600002D0FFF791FF04E000F06CF8204600F09B
:100F7000FEF8257720680169C943C90708D1C1680F
:100F8000C943C90704D1891E0161204600F054F904
:100F900020680169C943090609D4C168C943090623
:100FA00005D46FF0800101612046FFF75DFE2068E7
:100FB0000169C943490609D4C168C943490605D432
:100FC0006FF040010161204600F03EF920680169A0
:100FD000C94389060BD4C168C943890607D46FF099
:100FE000200101612046BDE87040FFF73EBE70BDA4
:100FF00010B586B0044614216846FFF71BF90E4968
:101000002068884215D10D480021026842F008028C
:101010000260006800F0080005904FF480500090D6
:101020000220CDE90101CDE9031069460448FFF72C
:10103000C9F906B010BD0000000800403038024079
:10104000000C0240704770B5044690F83C00002642
:101050000D4601280FD0012084F83C006AB1042A13
:101060001DD0082A2FD00C2A3FD00126002084F85A
:101070003C00304670BD022070BD206800F0DEFDEF
:101080002068816941F0080181612068816921F04F
:1010900004018161206881692A69114311E0206897
:1010A00000F0FCFD2068816941F4006181612068E5
:1010B000816921F480618161206881692A6941EA3E
:1010C00002218161D2E7206800F01EFE2068C1691C
:1010D00041F00801C1612068C16921F00401C161CA
:1010E0002068C1692A69114311E0206800F040FEC0
:1010F0002068C16941F40061C1612068C16921F4BF
:101100008061C1612068C1692A6941EA0221C16127
:10111000ACE710B5040003D094F83D0010B107E02F
:10112000012010BD002084F83C00204600F01EF88D
:10113000022084F83D00211D206800F0FBFC012006
:1011400084F8460084F83E0084F83F0084F84000AC
:1011500084F8410084F8420084F8430084F8440095
:1011600084F8450084F83D00002010BD70477047AA
:1011700010B50446022249B104290ED0082913D023
:1011800094F84100012816D0012010BD94F83E00CB
:101190000128F9D184F83E200FE094F83F0001289F
:1011A000F2D184F83F2008E094F840000128EBD108
:1011B00084F8402001E084F841200122206800F0FA
:1011C0001DFD16492068164A884201D0904203D17D
:1011D000436C43F4004343642068884213D0B0F169
:1011E000804F10D00F4988420DD00F4988420AD055
:1011F0000E49884207D0904205D00D49884202D05E
:101200000C49884204D1816801F00701062903D006
:10121000016841F001010160002010BD00000140A3
:10122000000401400004004000080040000C0040A1
:1012300000400140001800400249884201D100F0FE
:10124000DDBA70477000002070477047704700009B
:10125000F8B5016804460868CA684B6910F00F0FBA
:101260004FF0000559D003F0010602F490773743A0
:1012700065D0C10705D0D10503D5216C41F001012E
:101280002164410705D5D90703D0216C41F0020143
:101290002164810705D5D90703D0216C41F00401F1
:1012A0002164010707D502F02001314303D0216CEE
:1012B00041F008012164216C00293AD0800604D550
:1012C000900602D5204600F0D4FD20684069216CCC
:1012D000C0F38010090700D460B3204600F0A2FDDF
:1012E00020684069400621D52068143050E8001F6E
:1012F00021F0400140E80012002AF5D1A06BA8B10E
:101300006C490165A06BFFF71EF8002811D0A06B97
:10131000016D01B0BDE8F040084783060FD5930684
:101320000DD52046BDE8F84000F0A3BD2046FFF7EC
:101330008DFFF8BD2046FFF789FF2564F8BD266BB9
:101340002023012E79D1C60677D5D60675D5086833
:10135000486800904869400640D5A16B086840681D
:101360000004000CEAD0A28D8242E7D9E085C8696A
:10137000B0F5807F2DD020680C3050E8001F21F49C
:10138000807140E80012002AF5D12068143050E83E
:10139000001F21F0010140E80012002AF5D1206869
:1013A000143050E8001F21F0400140E80012002AEC
:1013B000F5D184F83E30256320680C3050E8001FDA
:1013C00021F0100140E80012002AF5D1A06BFEF7D1
:1013D00071FFA08DE18D401A81B229E0A08DE18DD1
:1013E000401A81B2E08D0028A8D00029A6D020683C
:1013F0000C3050E8002F22F4907240E80026002EB6
:10140000F5D12068143050E8002F22F0010240E8A6
:101410000026002EF5D184F83E30256320680C307C
:1014200050E8002F22F0100240E80023002BF5D1F5
:101430002046FFF70AFFF8BDFFE705062BD5150686
:1014400029D594F83D002128F5D1A068B0F5805F3A
:1014500001D12069B0B1206A411C21622168007865
:101460004860E08C401E0004000CE084E3D120685A
:10147000C16821F08001C1602068C16841F040016D
:10148000C160D8E7206A0088C0F308004860206A7D
:10149000801C2062E5E74006CDD55006CBD5CA6852
:1014A000204622F04002CA6084F83D3000F0E2F8A5
:1014B000C1E70000151E000870B5040004D094F8C0
:1014C0003D00002510B106E0012070BD84F83C50BD
:1014D000204600F023F8242084F83D002068C168ED
:1014E00021F40051C160204600F024FD206801690C
:1014F00021F4904101612068416921F02A01416194
:101500002068C16841F40051C1602564202084F83E
:101510003D0084F83E00002070BD000070B586B02C
:10152000044614216846FEF785FE2A48284E2568A1
:1015300000242849103802220323B54220D10D6827
:1015400045F400250D60096801F40021059101684A
:1015500041F0040101600068694600F00400059054
:1015600098028DE815000820CDE903301A48FEF7EF
:1015700029FF002211463420FFF790F8342023E0A1
:10158000164EB54222D10D6845F480250D600968DC
:1015900001F480210591016841F0080101600068B3
:1015A000694600F0080005904FF440708DE8150082
:1015B0000720CDE903300A48FEF704FF0022114658
:1015C0002720FFF76BF82720FFF75AF806B070BD09
:1015D000004C0040403802400008024000480040F3
:1015E000000C024090F83E30202B0ED159B152B180
:1015F00090F83C30012B08D0012380F83C300023C8
:10160000036300F01DBD01207047022070470000F9
:1016100030B400681449884223D114480023021DC5
:10162000017811B1012904D006E01478AA2C11D157
:1016300002E05478BB2C0CD1491CC9B201700529B9
:1016400008D1D178CC2904D11179DD2901D101212A
:1016500041700370007830BC111801220448FFF774
:10166000C1BF30BC70470000004C004004000020A7
:10167000B80000207047FEE710B5002000F0E2F946
:10168000002000F0EDF90220FEF782FE012000F0BC
:10169000D9F90220FEF77CFEBDE81040002000F0E2
:1016A000D1B910B5002000F0CDF9012000F0D8F933
:1016B0000220FEF76DFE012000F0C4F90220FEF7C3
:1016C00067FEBDE81040002000F0BCB92DE9F041F4
:1016D0000025114F06462C46002000F0B3F90220E9
:1016E000FEF756FE012000F0ADF96006040ED7F8B3
:1016F0001C0208B1641CE4B20120FEF749FE6D1C17
:10170000EDB2082DE8D326B1FFF7B6FF2046BDE8BD
:10171000F081FFF7C6FFF9E70080404270B504464C
:101720000025284600F08EF90C4EE009C6F89C0210
:101730006006040E0220FEF72BFE012000F082F965
:101740000220FEF725FE002000F07CF90220FEF7C3
:101750001FFE6D1CEDB2082DE7D370BD0080404226
:1017600010B5012000F07CF9012000F06BF9052094
:10177000FEF70EFE002000F073F90520FEF708FECC
:10178000BDE81040002000F05DB910B5002000F069
:1017900059F9002000F064F90520FEF7F9FD012059
:1017A00000F050F9012000F05BF9BDE81040052081
:1017B000FEF7EEBD10B50024012000F051F9012024
:1017C000FEF7E6FD012000F03DF90120FEF7E0FD07
:1017D000094807E0641CE4B2FA2C03D9FFF7D5FFEF
:1017E000012010BDD0F81C120029F3D1002000F018
:1017F00029F9002010BD00000080404210B500F023
:101800003FFD012000F0AAFC00280BD00649012072
:1018100000F068FC002805D00348044902890A80CA
:101820004089488010BD00004001002000000020D9
:101830002DE9F04186B014216846FEF7FBFC2748ED
:101840004FF00008016841F080010160016801F07B
:1018500080010591016841F001010160016801F01A
:1018600001010591016841F008010160016801F082
:1018700008010591016841F004010160016801F06F
:1018800004010591016841F0020101600068144EF5
:1018900000F002000590012230213046FEF78AFE5A
:1018A000104F0122C0213846FEF784FE302011245B
:1018B000CDE9000401200225CDE902056946304644
:1018C000FEF780FDC02003958DE81101694638467A
:1018D000FEF778FD06B0BDE8F08100003038024028
:1018E000000002400004024010B58EB000240794AE
:1018F000089409940A940B941C2168460C94FEF7F2
:1019000099FC20481E4901604721C0E9011444F6B2
:101910001F61C0E9031480218161FFF7EFF908B16D
:10192000FEF7C6FC4FF48050079007A91548FFF753
:101930003DFA08B1FEF7BCFC1248FFF7EAFB08B11C
:10194000FEF7B6FC0B940BA90E480C94FFF78EF92A
:1019500008B1FEF7ADFC6020009040F2DC50CDE90C
:1019600001040022694607480494FFF76CFB08B1A4
:10197000FEF79EFC0348FFF73BFB0EB010BD0000D6
:1019800000080040280000201CB500240F480094E7
:101990000D490194016040F24731C0E9011444F659
:1019A0001F618461C160FFF7A9F908B1FEF780FCEF
:1019B0000094694605480194FFF758F9002801D0C2
:1019C000FEF776FC1CBD00000014004070000020F3
:1019D0000C4810B50A4901604FF4165141600021CE
:1019E00081600C22C160C0E904128161C161FFF70E
:1019F00063FD002803D0BDE81040FEF759BC10BDC0
:101A0000004C0040B80000200C4810B50A490160A5
:101A10004FF4E1314160002181600C22C160C0E9D6
:101A200004128161C161FFF747FD002803D0BDE8C2
:101A30001040FEF73DBC10BD00480040FC000020F7
:101A4000FEE7000010B5024640210448FEF7B2FD53
:101A5000BDE810400A20FEF79BBC000000040240D5
:101A600010B5024680210448FEF7A4FDBDE81040F1
:101A70000A20FEF78DBC000000040240FEE770471C
:101A80007047FEF7A3BD000030B593B03021684623
:101A9000FEF7D0FB14210CA8FEF7CCFB1C48002558
:101AA000016841F080510160006800F080501190A1
:101AB0001848016841F4804101600068022400F484
:101AC000804011900120039010200490009406940F
:101AD0000820CDE907504820CDE9090404200B90E7
:101AE0006846FEF7F7FE08B172B6FEE70CA90F20B4
:101AF00081E831004FF480500F90109002210CA823
:101B0000FEF7FEFD002801D072B6FEE713B030BD2F
:101B100040380240007000400248016841F4700102
:101B20000160704788ED00E00148FFF7AEB90000A2
:101B300070000020F0B50268254C264D264E274F38
:101B4000274B4FF0804CA04209D0604507D0A842F7
:101B500005D0B04203D0B84201D0984204D122F05F
:101B6000700E4A6842EA0E02A0421BD0604519D0AE
:101B7000A84217D0B04215D0B84213D0984211D025
:101B8000184DA8420ED0184DA8420BD0174DA842B0
:101B900008D0174DA84205D0164DA84202D0164DC8
:101BA000A84203D122F44075CA682A434D6922F045
:101BB00080022A4302608A68C2620A688262A04286
:101BC00001D0984201D10969016301214161F0BD51
:101BD000000001400004004000080040000C0040EC
:101BE0000004014000400140004401400048014021
:101BF00000180040001C00400020004010B501F01B
:101C00001F030121046A99408C430462016A9A40CF
:101C10001143016210BD10B5846842EA032224F426
:101C20007F440A432243826010BD826822F0700222
:101C30000A4342F00701816070470000F0B5026A74
:101C400022F001020262036A42688469124E24F0A3
:101C500073050C682C4323F002058B682B430D4D54
:101C6000A84201D0B04205D123F00807CB683B431E
:101C700023F00403A84201D0B04205D14D6922F4FB
:101C8000407215438A692A4342608461496841630E
:101C90000362F0BD0000014000040140F0B5026A9B
:101CA00022F010020262026A436884690D6824F41B
:101CB000E64444EA05248D6822F0200242EA051237
:101CC0000F4D104EA84201D0B04206D1CF6822F08D
:101CD000800242EA071222F04002A84201D0B0423C
:101CE00007D14D6923F4406343EA85038D6943EAD4
:101CF000850343608461496881630262F0BD00002E
:101D00000000014000040140F0B5026A22F4807234
:101D10000262026A4368C46922F4007224F0730507
:101D20000C68124E2C438D6842EA05220E4DA842E3
:101D300001D0B04206D1CF6822F4006242EA072205
:101D400022F48062A84201D0B04207D14D6923F449
:101D5000405343EA05138D6943EA05134360C461A8
:101D60004968C1630262F0BD000001400004014007
:101D700030B5026A22F480520262046A4268C36982
:101D80000D6823F4E64343EA05238D6824F40054E8
:101D900044EA0534084DA84202D0084DA84204D1B7
:101DA0004D6922F4804242EA85124260C36149686B
:101DB0000164046230BD00000000014000040140E5
:101DC00010B5036A046A24F001040462846924F0F3
:101DD000F00444EA021423F00A020A438461026216
:101DE00010BD10B5036A23F0100303628369046A0F
:101DF00023F4704343EA023224F0A00343EA0111C2
:101E00008261016210BD00000148FFF721BA0000A5
:101E1000B800002010B5806B0021C185C184FFF798
:101E200015FA10BD01680C3151E8002F22F49072B0
:101E300041E80023002BF5D10168143151E8002F4F
:101E400022F0010241E80023002BF5D1016B0129AA
:101E500009D101680C3151E8002F22F0100241E84D
:101E60000023002BF5D1202180F83E1000210163D2
:101E7000704708B590F83E10222901D0022008BD15
:101E800082684FF480539A4201D1016921B1816A7D
:101E90009A421BD04AB10AE00268816A5268C2F3D2
:101EA00008020A80816A891C08E0026972B102682E
:101EB000526802F07F020A70816A491C8162C18DFA
:101EC000491E0904090CC18503D019E00268526853
:101ED000F1E70168CA6822F02002CA600168CA6896
:101EE00022F48072CA6001684A6922F001024A61E4
:101EF000202180F83E10016B012903D0FFF788FBF9
:101F0000002008BD0021016301680C3151E8002F59
:101F100022F0100241E80023002BF5D101680A6885
:101F2000D20602D50A6849680091818DFFF78DF9C4
:101F3000E6E7000070B5044600680169E26821F434
:101F40004051114301612169A068E2690843616958
:101F5000114308432168CA6849F20C639A4302435B
:101F6000CA6020684169A26921F44071114341614E
:101F700031492068884202D03049884202D1FEF7B8
:101F800069FC01E0FEF756FCE26900231921642593
:101F90003226B2F5004F626828D0A0FB0101930FF2
:101FA0009200FEF70FF90146B0FBF5F06FF0180252
:101FB000504301EB800006EB0010B0FBF5F000F0A1
:101FC000F002B1FBF5F002EB0012B1FBF5F06FF09F
:101FD0001803584301EB800006EB0010B0FBF5F04E
:101FE00000F00F0021681044886070BDA0FB010163
:101FF00092185B41FEF7E6F80146B0FBF5F00201EE
:10200000B1FBF5F06FF01803584301EB800006EBCD
:10201000C000B0FBF5F000F0F80002EB4002B1FBAD
:10202000F5F0584301EB800006EBC000B0FBF5F083
:1020300000F00700D6E70000001001400014014046
:1020400081628285C28500210164222280F83E20BF
:1020500080F83C100168CA6842F48072CA60016866
:102060004A6942F001024A610068C16841F02001FA
:10207000C1600020704700000148FFF7E9B8000088
:10208000FC000020FEE70907090E002804DB00F130
:10209000E02080F80014704700F00F0000F1E0200D
:1020A00080F8141D704702E008C8121F08C1002AFA
:1020B000FAD170477047002001E001C1121F002AC9
:1020C000FBD1704705480078062801D000207047F2
:1020D000034840780028FAD00120704714000020FF
:1020E0005001002070B505460020086048608860F7
:1020F000C86018480C460078062816D1FFF7E2FFA2
:10210000002813D0144B02215A78921C1FE0585C0F
:10211000A8421BD141F2104000EB011080B2102206
:10212000214600F097F8102801D0002070BDB4F9C6
:1021300008005A2800DDB4382081B4F90A000028CC
:1021400000DA4042A0386081012070BD491C9142F4
:10215000DDDB70BD1400002050010020094910B5DE
:10216000097806290CD1084B02215A78921C05E007
:102170005C5C844201D1012010BD491C9142F7DB17
:10218000002010BD1400002050010020FEF726FAA8
:10219000FFF77AFCFFF74CFBFFF71AFCFFF7F4FBA5
:1021A000FFF732FCFFF7A0FB012215491548FFF7A6
:1021B00019FA00211448FEF7DBFF134D104C241FC1
:1021C00029686088486300274FF4FA78261D40F696
:1021D000C4194FF4AF7A607870B16770B078012895
:1021E00002D0022803D004E0A4F8028001E0A4F8A1
:1021F00002902968608848635046FEF7B7F8EAE71E
:1022000008000020B80000202800002010B5044677
:10221000FFF7A6FA6420FFF781FAFFF7CBFAE0B2E6
:10222000FFF77CFAFFF7C6FA200AFFF777FAFFF705
:10223000C1FAFFF7AAFAFFF793FA6520FFF76EFAE3
:10224000FFF7B8FA0020FFF741FA0446FFF79DFABE
:10225000204610BD2DE9F041002590460E46074668
:102260002C4608E03846791C8FB2FFF7CFFF641C7C
:1022700006F8010B6D1C4445F4DB2846BDE8F081EF
:1022800010B501221F493520FFF7E4FF1D480078F3
:102290000A2835D2DFE800F034050A0F14191E238E
:1022A000282C302218494FF4806025E0302216494E
:1022B0004FF4006020E0802213494FF440601BE09F
:1022C000402211494FF4606016E030220E494FF46D
:1022D000805011E030220C494FF4A0500CE0302225
:1022E00009494FF4F05007E030220749D00103E0DC
:1022F000054930224FF4E050BDE81040FFF7AABF77
:1023000010BD00001400002050010020000000005B
:102310000000000001020304060708090000000095
:1023200001020304442300080000002028000000EC
:10233000A62000086C23000828000020A805000043
:10234000B6200008000000000000DC0500000000CE
:10235000000000000000000000000000010000007C
:0C23600010000000000000000024F40049
:040000050800018965
:00000001FF
